:020000040000fa
:080000000002040000000000f2
:020000040000fa
:04000800cc02000026
:020000040000fa
:04000c00cc02000022
:020000040000fa
:04001000cc0200001e
:020000040000fa
:04001400cc0200001a
:020000040000fa
:04001800cc02000016
:020000040000fa
:04001c00cc02000012
:020000040000fa
:04002000cc0200000e
:020000040000fa
:04002400cc0200000a
:020000040000fa
:04002800cc02000006
:020000040000fa
:04002c00cc02000002
:020000040000fa
:04003000cc020000fe
:020000040000fa
:04003400cc020000fa
:020000040000fa
:04003800cc020000f6
:020000040000fa
:04003c00cc020000f2
:020000040000fa
:04004000cc020000ee
:020000040000fa
:04004400cc020000ea
:020000040000fa
:04004800cc020000e6
:020000040000fa
:04004c00cc020000e2
:020000040000fa
:04005000cc020000de
:020000040000fa
:04005400cc020000da
:020000040000fa
:04005800cc020000d6
:020000040000fa
:04005c00cc020000d2
:020000040000fa
:04006000cc020000ce
:020000040000fa
:04006400cc020000ca
:020000040000fa
:04006800cc020000c6
:020000040000fa
:04006c00cc020000c2
:020000040000fa
:04007000cc020000be
:020000040000fa
:04007400cc020000ba
:020000040000fa
:04007800cc020000b6
:020000040000fa
:04007c00cc020000b2
:020000040000fa
:04008000cc020000ae
:020000040000fa
:04008400cc020000aa
:020000040000fa
:04008800cc020000a6
:020000040000fa
:04008c00cc020000a2
:020000040000fa
:04009000cc0200009e
:020000040000fa
:04009400cc0200009a
:020000040000fa
:04009800cc02000096
:020000040000fa
:04009c00cc02000092
:020000040000fa
:0400a000cc0200008e
:020000040000fa
:0400a400cc0200008a
:020000040000fa
:0400a800cc02000086
:020000040000fa
:0400ac00cc02000082
:020000040000fa
:0400b000cc0200007e
:020000040000fa
:0400b400cc0200007a
:020000040000fa
:0400b800cc02000076
:020000040000fa
:0400bc00cc02000072
:020000040000fa
:0400c000cc0200006e
:020000040000fa
:0400c400cc0200006a
:020000040000fa
:0400c800cc02000066
:020000040000fa
:0400cc00cc02000062
:020000040000fa
:0400d000cc0200005e
:020000040000fa
:0400d400cc0200005a
:020000040000fa
:0400d800cc02000056
:020000040000fa
:0400dc00cc02000052
:020000040000fa
:0400e000cc0200004e
:020000040000fa
:0400e400cc0200004a
:020000040000fa
:0400e800cc02000046
:020000040000fa
:0400ec00cc02000042
:020000040000fa
:0400f000cc0200003e
:020000040000fa
:0400f400cc0200003a
:020000040000fa
:0400f800cc02000036
:020000040000fa
:0400fc00cc02000032
:020000040000fa
:04010000cc0200002d
:020000040000fa
:04010400cc02000029
:020000040000fa
:04010800cc02000025
:020000040000fa
:04010c00cc02000021
:020000040000fa
:04011000cc0200001d
:020000040000fa
:04011400cc02000019
:020000040000fa
:04011800cc02000015
:020000040000fa
:04011c00cc02000011
:020000040000fa
:04012000cc0200000d
:020000040000fa
:04012400cc02000009
:020000040000fa
:04012800cc02000005
:020000040000fa
:04012c00cc02000001
:020000040000fa
:04013000cc020000fd
:020000040000fa
:04013400cc020000f9
:020000040000fa
:04013800cc020000f5
:020000040000fa
:04013c00cc020000f1
:020000040000fa
:04014000cc020000ed
:020000040000fa
:04014400cc020000e9
:020000040000fa
:04014800cc020000e5
:020000040000fa
:04014c00cc020000e1
:020000040000fa
:04015000cc020000dd
:020000040000fa
:04015400cc020000d9
:020000040000fa
:04015800cc020000d5
:020000040000fa
:04015c00cc020000d1
:020000040000fa
:04016000cc020000cd
:020000040000fa
:04016400cc020000c9
:020000040000fa
:04020800cc02000024
:020000040000fa
:04020c00cc02000020
:020000040000fa
:04021000cc0200001c
:020000040000fa
:04021400cc02000018
:020000040000fa
:04021800cc02000014
:020000040000fa
:04021c00cc02000010
:020000040000fa
:04022000cc0200000c
:020000040000fa
:04022400cc02000008
:020000040000fa
:04022800cc02000004
:020000040000fa
:04022c00cc02000000
:020000040000fa
:04023000cc020000fc
:020000040000fa
:04023400cc020000f8
:020000040000fa
:04023800cc020000f4
:020000040000fa
:04023c00cc020000f0
:020000040000fa
:04024000cc020000ec
:020000040000fa
:04024400cc020000e8
:020000040000fa
:04024800cc020000e4
:020000040000fa
:04024c00cc020000e0
:020000040000fa
:04025000cc020000dc
:020000040000fa
:04025400cc020000d8
:020000040000fa
:04025800cc020000d4
:020000040000fa
:04025c00cc020000d0
:020000040000fa
:04026000cc020000cc
:020000040000fa
:04026400cc020000c8
:020000040000fa
:04026800cc020000c4
:020000040000fa
:04026c00cc020000c0
:020000040000fa
:04027000cc020000bc
:020000040000fa
:04027400cc020000b8
:020000040000fa
:04027800cc020000b4
:020000040000fa
:04027c00cc020000b0
:020000040000fa
:04028000cc020000ac
:020000040000fa
:04028400cc020000a8
:020000040000fa
:04028800cc020000a4
:020000040000fa
:04028c00cc020000a0
:020000040000fa
:04029000cc0200009c
:020000040000fa
:04029400cc02000098
:020000040000fa
:04029800cc02000094
:020000040000fa
:04029c00cc02000090
:020000040000fa
:0402a000cc0200008c
:020000040000fa
:0402a400cc02000088
:020000040000fa
:0402a800cc02000084
:020000040000fa
:0402ac00cc02000080
:020000040000fa
:0402b000cc0200007c
:020000040000fa
:0402b400cc02000078
:020000040000fa
:0402b800cc02000074
:020000040000fa
:0402bc00cc02000070
:020000040000fa
:0402c000cc0200006c
:020000040000fa
:0402c400cc02000068
:020000040000fa
:0402c800cc02000064
:020000040000fa
:0402cc00cc02000060
:020000040000fa
:0402d000cc0200005c
:020000040000fa
:0402d400cc02000058
:020000040000fa
:0402d800cc02000054
:020000040000fa
:0402dc00cc02000050
:020000040000fa
:0402e000cc0200004c
:020000040000fa
:0402e400cc02000048
:020000040000fa
:0402e800cc02000044
:020000040000fa
:0402ec00cc02000040
:020000040000fa
:0402f000cc0200003c
:020000040000fa
:0402f400cc02000038
:020000040000fa
:0402f800cc02000034
:020000040000fa
:0402fc00cc02000030
:020000040000fa
:04030000cc0200002b
:020000040000fa
:04030400cc02000027
:020000040000fa
:04030800cc02000023
:020000040000fa
:04030c00cc0200001f
:020000040000fa
:04031000cc0200001b
:020000040000fa
:04031400cc02000017
:020000040000fa
:04031800cc02000013
:020000040000fa
:04031c00cc0200000f
:020000040000fa
:04032000cc0200000b
:020000040000fa
:04032400cc02000007
:020000040000fa
:04032800cc02000003
:020000040000fa
:04032c00cc020000ff
:020000040000fa
:04033000cc020000fb
:020000040000fa
:04033400cc020000f7
:020000040000fa
:04033800cc020000f3
:020000040000fa
:04033c00cc020000ef
:020000040000fa
:04034000cc020000eb
:020000040000fa
:04034400cc020000e7
:020000040000fa
:04034800cc020000e3
:020000040000fa
:04034c00cc020000df
:020000040000fa
:04035000cc020000db
:020000040000fa
:04035400cc020000d7
:020000040000fa
:04035800cc020000d3
:020000040000fa
:04035c00cc020000cf
:020000040000fa
:04036000cc020000cb
:020000040000fa
:04036400cc020000c7
:020000040000fa
:10040000ef8620000e7f24000e018800000000000f
:10041000000020000000e000020032000001200087
:1004200020028800140007005d0007000000e000c3
:1004300003003a004098200001002000020037002d
:100440000000200001002000810f70000100320038
:1004500014000700000020000000e000020032004d
:100460000000020000000000ea0602000000000098
:100470000040da000000fe004440a900a005200072
:100480000000e0000300320000002000a00188000e
:100490004440a800000006008a1f78008b1f7800e7
:1004a0000000060091018800800478000000eb0045
:1004b0001a003700e284440032a0b4009905ba0063
:1004c000e284440032a0b4009906ba00e2844400f9
:1004d00032a0b4000006eb00476fde00fd07b2005b
:1004e000636ce10003003a00ebff07000000eb0043
:1004f0000a003700606ce10004003a00005deb0088
:100500008b05e900fdff3e00040037006168e10053
:10051000010032000086eb000b00070019c7ba008b
:100520001905ba000e04e00003003a000a00e000da
:10053000e0ff3a0000000600fe07b2009e018800be
:100540008a047800f5ff3700395dba008b05e900b1
:100550000c003200295dba008b05e900080032006a
:100560000c00e00003003a00e284440032a0b40032
:10057000f5ff370019ddba008b05e900faff3a00f4
:100580008904e800e184440032a0b40000000600c1
:10059000a0080400000000000040da000000fe0097
:0405a0000000050052
:020000040000fa
:1005a40000040000000000001000000088f80000b3
:1005b400fa0300007ff80000fb0300008df8000040
:1005c400f303000089f80000f303000000040000b6
:1005d4000000000000fc0000000400000000000017
:1005e40000fc0000000400000000000000fc00000b
:1005f400000400000000000000fc000007000000f0
:10060400c9f80000f9030000bbf80000fa03000079
:10061400cdf80000f0030000c7f80000f00300006c
:10062400000400000000000000fc000000040000c2
:100634000000000000fc00000004000000000000b6
:1006440000fc0000000400000000000000fc0000aa
:04065400080000009a
:020000040000fa
:100658000800fa0020079800310798000000eb0016
:10066800000f78003e0090000000e00009003a000a
:100678002e0090000000e00003003a000000eb00ac
:10068800100798000b003700100020001007980092
:10069800080037002e0090000000e00003003a0038
:1006a80020002000100798000200370030002000ca
:1006b8001007980000408000e20f50003a00320016
:1006c800e20f500005003e000000e0000800320084
:1006d800e10f500015003200b7003700e30f50005b
:1006e8006a003200e40f500098003200b200370070
:1006f8001e009000e10f5000b1003a0010002000e9
:1007080000408800100020001040880010002000e1
:10071800204088000628ef00900020004040880014
:100728000a28ef000c28ef00b000370010408000c6
:100738000000e800104088001e009000e10f500003
:1007480003003a00204080000000e80020408800b4
:100758001e009000e20f500003003a003040800075
:100768000000e8003040880011408000f0042000bc
:10077800808f5000940034002140800070022000d7
:10078800808f5000060034002000200000408800c0
:100798000228ef000428ef000628ef009300370036
:1007a8000028ef0091003700104080000000e800aa
:1007b800104088001e009000e10f500003003a002e
:1007c800204080000000e800204088001e009000c3
:1007d800e20f500003003a00304080000000e800bb
:1007e8003040880011408000f0042000808f5000c5
:1007f800770034002140800070022000808f500074
:1008080007003400404080000000e90040408800b4
:100818000228ef000428ef000628ef001500370033
:100828003140800070022000808f5000100034009a
:1008380040408000110020008008dd0060408000fa
:100848000100700060408800404080000000e9001e
:1008580040408800504080000000e8005040880078
:100868000228ef000428ef000628ef0001003700f7
:100878000028ef00404080000000e00056003d00e6
:1008880030002000004088005800370010408000e9
:100898000000e800104088001e009000e10f5000a2
:1008a80003003a00204080000000e8002040880053
:1008b8001e009000e20f500003003a003040800014
:1008c8000000e8003040880011408000f00420005b
:1008d800808f50004200340050408000610060006a
:1008e800004078000004e0000c0032003140800035
:1008f80070022000808f5000060034004000200065
:10090800004088000228ef000428ef000628ef00c6
:10091800360037000028ef003400370021408000ff
:1009280070022000808f5000060034004000200034
:10093800004088000228ef000428ef000628ef0096
:100948002a0037000028ef002800370010408000f8
:100958000000e800104088001e009000e10f5000e1
:1009680003003a00204080000000e8002040880092
:100978001e009000e20f500003003a003040800053
:100988000000e8003040880011408000f00420009a
:10099800808f500014003400314080007002200025
:1009a800808f50000200340010002000000f7800f3
:1009b8000028ef000d0037000028ef000b0037007b
:1009c80000000000090037000000000007003700a1
:1009d8000000000005003700000000000300370099
:1009e8000000000001003700000000001e00780031
:1009f8000000e000040032000000eb00000f780067
:100a080060408000010037000000eb000080fa0021
:100a1800000006001200fa00000f98000e0890006f
:100a2800cf80de00021884000002be00e3802000b0
:100a3800812e2800802d280056000700008fbe0058
:100a4800001884001e02be00a38120000001780067
:100a5800e12e2800c02d28004e000700200798002e
:100a680031079800001884002e029000be02900002
:100a78006382200000017800412f2800002e280002
:100a880044000700400798005107980000188400a8
:100a98004e029000de0290002383200000017800bf
:100aa800a12f2800402e28003a0007006007980070
:100ab800710798006e019000fe01900000802000f0
:100ac8000100200002004000838048000080fa00f6
:100ad800000006001200fa00000f98000e089000af
:100ae800cf80de00521984000002be00e38320009c
:100af800213128002030280026000700008fbe0082
:100b0800501984001e02be00a38420000001780052
:100b180081312800603028001e0007002007980057
:100b280031079800501984002e029000be029000f0
:100b38006385200000017800e1312800a0302800fa
:100b480014000700400798005107980050198400c6
:100b58004e029000de0290002386200000017800fb
:100b680041322800e03028000a000700600798009a
:100b7800710798006e019000fe019000008020002f
:100b88000100200002004000838048000080fa0035
:100b9800000006001400fa00889fbe008a9fbe006d
:100ba8008c9fbe00200798003107980042079800e4
:100bb8005307980064079800750798006e00900026
:100bc800fe0090004a0bdd00c603de0087037300b9
:100bd8004a03dd002e009000100078006101b90082
:100be8005e009000640040001000be00009ab9004a
:100bf80004027800028cb9008802780005024200dd
:100c08000010b8000102420084007800000353007d
:100c180081835b002e0090000080e80010007800bf
:100c28006101b9005e009000680040001000be003d
:100c3800009ab90004027800028cb9008802780092
:100c4800050242000010b80001024200840078004a
:100c58000000530081805b004609dd004a05de0084
:100c68000a057100ca8dde005e0090000a88be0089
:100c78004e0090006104b9003e009000100078001a
:100c88006101b9005e0090001000be00009ab90032
:100c980004027800028bb90086027800050242003f
:100ca8000011b80003024200840178003e00900061
:100cb8000080e800100078006102b9005e00900032
:100cc800640040001000be0000abb90006037800c5
:100cd800048db9008a037800070343000020b80098
:100ce8000103430086007800020340008383480024
:100cf8003e00900064004000100078006101b900d7
:100d08005e009000680040001000be00009ab90024
:100d180004027800028db9008a02780005024200b8
:100d28000010b8000102420084007800060040006c
:100d380087804800c609dd004a06de000c8671007f
:100d4800ca8ede000cc8b9000001780008e8b900b6
:100d580000007800000141000c40b800010141008a
:100d680082007800c609dd004a01de0002817100b8
:100d7800020f98004a89de00120f98000e099000b1
:100d88009e099000028fbe005e009000680140003e
:100d98005e009000640040001000be000089be00a4
:100da8005e009000640140005e0090001000be00ec
:100db8000089be001e00be004f06be004f05be00e3
:100dc8004f04be000080fa00000006001400fa007c
:100dd800a0002000e400070017010700409c200045
:100de8007008880013e1a800400120004011880025
:100df8002062a90021e2a8002342a8002135800032
:100e080000fe2f00008060006000b30020358800dd
:100e180031368000f00f2e00808060000030200006
:100e28000100700030368800c8a2a900cca2a90031
:100e3800c902a900cd02a900c922a900cd22a90092
:100e48000000eb00300798000000eb004007980016
:100e58000000eb0010079800500037000000eb007e
:100e6800000f78000040eb00504798000040eb006e
:100e78004047980038003700210480000010200007
:100e8800008060000000e000330032008500a90007
:100e98000601070000000000080107000000e0004c
:100ea800fdff32000c010700500798005e0090001b
:100eb800d8fe070060079800710798005e00900050
:100ec80004ff0700000f9800110f98006e019000b2
:100ed800fe0190009087200001002000800f510043
:100ee800818f590007003c006e019000fe019000c0
:100ef8006078200001002000800f5100818f590088
:100f080003003c0010c0b30040479800cd22a80061
:100f18000e0990009e0990007089200001002000b1
:100f2800800f5100818f590007003c000e09900086
:100f38009e0990008076200001002000800f51005b
:100f4800818f590003003c0010c0b300504798003f
:100f5800cd02a8001e0fe8001e007800f30f500015
:100f6800c5ff34005e4090000004e00001003a0034
:100f7800cd02a9004e4090000004e00001003a00b4
:100f8800cd22a9005e4090008000fb004e409000fa
:100f98000000fb00aefd0700100798001e0090003f
:100fa8000000e000adff3200611680000002200062
:100fb800008060000000e00002003200cca2a9001e
:100fc80001003700cca2a800018a20001e00900072
:100fd8004880de0001000100018a20001e00900008
:100fe8000100010098ff37000200fa00000000002d
:100ff8001111800000202000008060000000e00047
:10100800fbff3a00a0022000201188000000000029
:1010180010118000610060000000e000fcff320059
:1010280030118000000f78000080fa0000000600f0
:101038000a00fa00889fbe00000f78001207980087
:10104800230798003407980045079800101180007e
:10105800610060000000e000340032000000000081
:101068001111800000202000008060000000e000d6
:10107800fbff3a001e0078000000e00001003d0080
:101088006f0040004480de0020118800000000004e
:101098001111800000202000008060000000e000a6
:1010a800fbff3a001e009000ae009000e00f5000d9
:1010b800e08f580002003d006f004000e0804800cb
:1010c8004c09dd004404de0008047100c48cde0015
:1010d8000800be0000007800201188000000000011
:1010e8001111800000202000008060000000e00056
:1010f800fbff3a003e009000ce009000e00f500049
:10110800e08f580002003d006f004000e08048007a
:101118004c09dd004403de0006037100c48bde00c9
:101128000600be0000007800201188004f04be00b1
:101138000080fa00000006000200fa00000f7800a4
:1011480000000000111180000020200000806000d5
:101158000000e000fbff3a001e0078002011880024
:101168000080fa00000006000200fa00000f780074
:101178001e007800e80f50000b003a0060022000c3
:10118800303a8800213a800000fe2f00008060007d
:10119800203a8800213a8000f0f32f000080600098
:1011a800203a88000d0037001e007800ea0f500032
:1011b8000a003a00e0012000303a8800213a800015
:1011c80000fe2f0000806000203a8800213a80004d
:1011d800f0f32f0000806000203a880032002000e1
:1011e80080072000a109200033742000804978007e
:1011f80081497800824978001200200060042000ac
:101208007105200023742000804978008149780006
:101218008249780000000000113a80000000270091
:101228008080600000002300808f5000faff3a00a1
:101238000080fa00000006000000fa002143a80020
:1012480050c0b30024e3b7002043a8003003a8002f
:101258002c03a90001198000f0f12f000080600024
:101268000019880021e3a8000080fa0000000600a9
:101278000000fa002143a80050c0b30024e3b700df
:101288002043a8003003a8002c03a90001198000fe
:10129800f0f12f00008060000060a00000198800b5
:1012a80021e3a8000080fa00000006000000fa0010
:1012b8002023a9000080fa00000006000000fa00c0
:1012c8000019800000407800614060000080fb0049
:1012d8000080fa00000006000000fa0000198000f3
:1012e800610060000000e000020032000018800089
:1012f80001003700a00528000080fa000000060061
:020000040000fa
:101308000e08000060000000000000000008000057
:0c1318000e0000000000000000000000bb
:020000040000fa
:0200000401f009
:04000c008000000070
:020000040000fa
:0200000401f009
:040010006500000087
:020000040000fa
:0200000401f009
:040014005f00000089
:020000040000fa
:0200000401f009
:04001c00dfff000002
:00000001FF
