:020000040000fa
:080000000002040000000000f2
:020000040000fa
:04000800c80200002a
:020000040000fa
:04000c00c802000026
:020000040000fa
:04001000c802000022
:020000040000fa
:04001400c80200001e
:020000040000fa
:04001800c80200001a
:020000040000fa
:04001c00c802000016
:020000040000fa
:04002000c802000012
:020000040000fa
:04002400c80200000e
:020000040000fa
:04002800c80200000a
:020000040000fa
:04002c00c802000006
:020000040000fa
:04003000c802000002
:020000040000fa
:04003400c8020000fe
:020000040000fa
:04003800c8020000fa
:020000040000fa
:04003c00c8020000f6
:020000040000fa
:04004000c8020000f2
:020000040000fa
:04004400c8020000ee
:020000040000fa
:04004800c8020000ea
:020000040000fa
:04004c00c8020000e6
:020000040000fa
:04005000c8020000e2
:020000040000fa
:04005400c8020000de
:020000040000fa
:04005800c8020000da
:020000040000fa
:04005c00c8020000d6
:020000040000fa
:04006000c8020000d2
:020000040000fa
:04006400c8020000ce
:020000040000fa
:04006800c8020000ca
:020000040000fa
:04006c00c8020000c6
:020000040000fa
:04007000c8020000c2
:020000040000fa
:04007400c8020000be
:020000040000fa
:04007800c8020000ba
:020000040000fa
:04007c00c8020000b6
:020000040000fa
:04008000c8020000b2
:020000040000fa
:04008400c8020000ae
:020000040000fa
:04008800c8020000aa
:020000040000fa
:04008c00c8020000a6
:020000040000fa
:04009000c8020000a2
:020000040000fa
:04009400c80200009e
:020000040000fa
:04009800c80200009a
:020000040000fa
:04009c00c802000096
:020000040000fa
:0400a000c802000092
:020000040000fa
:0400a400c80200008e
:020000040000fa
:0400a800c80200008a
:020000040000fa
:0400ac00c802000086
:020000040000fa
:0400b000c802000082
:020000040000fa
:0400b400c80200007e
:020000040000fa
:0400b800c80200007a
:020000040000fa
:0400bc00c802000076
:020000040000fa
:0400c000c802000072
:020000040000fa
:0400c400c80200006e
:020000040000fa
:0400c800c80200006a
:020000040000fa
:0400cc00c802000066
:020000040000fa
:0400d000c802000062
:020000040000fa
:0400d400c80200005e
:020000040000fa
:0400d800c80200005a
:020000040000fa
:0400dc00c802000056
:020000040000fa
:0400e000c802000052
:020000040000fa
:0400e400c80200004e
:020000040000fa
:0400e800c80200004a
:020000040000fa
:0400ec00c802000046
:020000040000fa
:0400f000c802000042
:020000040000fa
:0400f400c80200003e
:020000040000fa
:0400f800c80200003a
:020000040000fa
:0400fc00c802000036
:020000040000fa
:04010000c802000031
:020000040000fa
:04010400c80200002d
:020000040000fa
:04010800c802000029
:020000040000fa
:04010c00c802000025
:020000040000fa
:04011000c802000021
:020000040000fa
:04011400c80200001d
:020000040000fa
:04011800c802000019
:020000040000fa
:04011c00c802000015
:020000040000fa
:04012000c802000011
:020000040000fa
:04012400c80200000d
:020000040000fa
:04012800c802000009
:020000040000fa
:04012c00c802000005
:020000040000fa
:04013000c802000001
:020000040000fa
:04013400c8020000fd
:020000040000fa
:04013800c8020000f9
:020000040000fa
:04013c00c8020000f5
:020000040000fa
:04014000c8020000f1
:020000040000fa
:04014400c8020000ed
:020000040000fa
:04014800c8020000e9
:020000040000fa
:04014c00c8020000e5
:020000040000fa
:04015000c8020000e1
:020000040000fa
:04015400c8020000dd
:020000040000fa
:04015800c8020000d9
:020000040000fa
:04015c00c8020000d5
:020000040000fa
:04016000c8020000d1
:020000040000fa
:04016400c8020000cd
:020000040000fa
:04020800c802000028
:020000040000fa
:04020c00c802000024
:020000040000fa
:04021000c802000020
:020000040000fa
:04021400c80200001c
:020000040000fa
:04021800c802000018
:020000040000fa
:04021c00c802000014
:020000040000fa
:04022000c802000010
:020000040000fa
:04022400c80200000c
:020000040000fa
:04022800c802000008
:020000040000fa
:04022c00c802000004
:020000040000fa
:04023000c802000000
:020000040000fa
:04023400c8020000fc
:020000040000fa
:04023800c8020000f8
:020000040000fa
:04023c00c8020000f4
:020000040000fa
:04024000c8020000f0
:020000040000fa
:04024400c8020000ec
:020000040000fa
:04024800c8020000e8
:020000040000fa
:04024c00c8020000e4
:020000040000fa
:04025000c8020000e0
:020000040000fa
:04025400c8020000dc
:020000040000fa
:04025800c8020000d8
:020000040000fa
:04025c00c8020000d4
:020000040000fa
:04026000c8020000d0
:020000040000fa
:04026400c8020000cc
:020000040000fa
:04026800c8020000c8
:020000040000fa
:04026c00c8020000c4
:020000040000fa
:04027000c8020000c0
:020000040000fa
:04027400c8020000bc
:020000040000fa
:04027800c8020000b8
:020000040000fa
:04027c00c8020000b4
:020000040000fa
:04028000c8020000b0
:020000040000fa
:04028400c8020000ac
:020000040000fa
:04028800c8020000a8
:020000040000fa
:04028c00c8020000a4
:020000040000fa
:04029000c8020000a0
:020000040000fa
:04029400c80200009c
:020000040000fa
:04029800c802000098
:020000040000fa
:04029c00c802000094
:020000040000fa
:0402a000c802000090
:020000040000fa
:0402a400c80200008c
:020000040000fa
:0402a800c802000088
:020000040000fa
:0402ac00c802000084
:020000040000fa
:0402b000c802000080
:020000040000fa
:0402b400c80200007c
:020000040000fa
:0402b800c802000078
:020000040000fa
:0402bc00c802000074
:020000040000fa
:0402c000c802000070
:020000040000fa
:0402c400c80200006c
:020000040000fa
:0402c800c802000068
:020000040000fa
:0402cc00c802000064
:020000040000fa
:0402d000c802000060
:020000040000fa
:0402d400c80200005c
:020000040000fa
:0402d800c802000058
:020000040000fa
:0402dc00c802000054
:020000040000fa
:0402e000c802000050
:020000040000fa
:0402e400c80200004c
:020000040000fa
:0402e800c802000048
:020000040000fa
:0402ec00c802000044
:020000040000fa
:0402f000c802000040
:020000040000fa
:0402f400c80200003c
:020000040000fa
:0402f800c802000038
:020000040000fa
:0402fc00c802000034
:020000040000fa
:04030000c80200002f
:020000040000fa
:04030400c80200002b
:020000040000fa
:04030800c802000027
:020000040000fa
:04030c00c802000023
:020000040000fa
:04031000c80200001f
:020000040000fa
:04031400c80200001b
:020000040000fa
:04031800c802000017
:020000040000fa
:04031c00c802000013
:020000040000fa
:04032000c80200000f
:020000040000fa
:04032400c80200000b
:020000040000fa
:04032800c802000007
:020000040000fa
:04032c00c802000003
:020000040000fa
:04033000c8020000ff
:020000040000fa
:04033400c8020000fb
:020000040000fa
:04033800c8020000f7
:020000040000fa
:04033c00c8020000f3
:020000040000fa
:04034000c8020000ef
:020000040000fa
:04034400c8020000eb
:020000040000fa
:04034800c8020000e7
:020000040000fa
:04034c00c8020000e3
:020000040000fa
:04035000c8020000df
:020000040000fa
:04035400c8020000db
:020000040000fa
:04035800c8020000d7
:020000040000fa
:04035c00c8020000d3
:020000040000fa
:04036000c8020000cf
:020000040000fa
:04036400c8020000cb
:020000040000fa
:100400002f8120000e7f24000e01880000000000d4
:10041000000020000000e000020032000001200087
:1004200020028800140007005b0007000000e000c5
:1004300003003a008019210001002000020037006b
:100440000000200001002000810f70000100320038
:1004500014000700000020000000e000020032004d
:1004600000000200000000000e0e0200000000006c
:100470000040da000000fe004440a9000000200017
:100480000000e0000300320000002000a00188000e
:100490004440a800000006008a1f78008b1f7800e7
:1004a0000000060091018800800478000000eb0045
:1004b0001a003700e284440032a0b4009905ba0063
:1004c000e284440032a0b4009906ba00e2844400f9
:1004d00032a0b4000006eb00476fde00fd07b2005b
:1004e000636ce10003003a00ebff07000000eb0043
:1004f0000a003700606ce10004003a00005deb0088
:100500008b05e900fdff3e00040037006168e10053
:10051000010032000086eb000b00070019c7ba008b
:100520001905ba000e04e00003003a000a00e000da
:10053000e0ff3a0000000600fe07b2009e018800be
:100540008a047800f5ff3700395dba008b05e900b1
:100550000c003200295dba008b05e900080032006a
:100560000c00e00003003a00e284440032a0b40032
:10057000f5ff370019ddba008b05e900faff3a00f4
:100580008904e800e184440032a0b40000000600c1
:100590000040da000000fe000000050003f0a200a9
:1005a000889fbe008a9fbe008c1f7800fa0007005b
:1005b000010133006450e1004f0032006420e1008b
:1005c0005200320003826c0007003b000905d00096
:1005d0000306d000820f54000c065d0002003900b3
:1005e00002003200890178000306780085825500f8
:1005f00004003d000003fd008103fd008502ea00c8
:100600008b854200840f720002003b0060001000e6
:10061000e08018006011b8000005eb007a28e100c6
:100620000a00390006007800c75ddd00f707b20058
:10063000878075002d003700828171000a017800e3
:10064000610560008180d1000080d3008502e9004f
:10065000f9ff3b00060440008784480002003b008d
:1006600060041400e0841c000988a3000700320025
:100670008a81710082817100610164008904d10066
:100680000884d3008b05e800170037000978a30021
:1006900013003a000b00e000130034008b05e90062
:1006a0000804440089844c000a4474000978a300bb
:1006b0000d003a000b00e000070034008b05e90054
:1006c0000804440089844c0001003a000b0020001b
:1006d0000978a300f7ff32000001eb0002003700a9
:1006e000828171000a017800700007000cf0a700f9
:1006f00001f0a000b90037006420e10002003a00d8
:10070000838f6c00b90033000801be000200be00f8
:10071000b2003700889fbe008a9fbe008c1f780001
:100720009d000700a400330003866c006450e100c4
:100730002e0032006420e100330032006150e100fd
:100740002f0032006120e100310032008585550024
:10075000eb07b00009002000080420000500370066
:100760000804440089844c000a0031000603430059
:1007700087834b000001530081815b00f8ff330049
:100780000203be000800a0000804440089844c0055
:10079000f6ff3900c639dd00830173000100320025
:1007a000130020008904d1000884d3000998a30015
:1007b000050032000800a7000300a0008904d10052
:1007c0000884d3008b05e8008904d1000884d30095
:1007d0000001eb000281d2003400070001f0a1000b
:1007e0000cf0a70001f0a0007c0037006420e100bd
:1007f0007e0032000801be000200be00f7ff370095
:100800006120e100790032006000b800f3ff37009a
:100810000000200001f82700f0ff3700140020003e
:10082000de003700f4ff2f00dc0037000001be00bf
:10083000440007000470a70003f0a10003f8a30020
:1008400013003a006509b1001000320009003500bc
:100850006928e100020035000100280000000500c1
:1008600000004000818048008502e900fcff3a005a
:1008700000000600f88f4200050035008100d1001d
:100880000080d3008502e800fcff3a00000006006b
:100890008000eb00000005004f89de008201780037
:1008a000d90037006011b800e70037008100200050
:1008b000618055000b003d000b00200061fe2f0001
:1008c0000100e1001d0034008281710061016400bb
:1008d0008904d1000884d3000000e800faff3a0040
:1008e00071002000610064000300700002006000dd
:1008f0000900320061044400e0844c000988a5002e
:10090000050032008b05e8006808e10002003a00ab
:100910008904d1000884d300f20f20000258e100be
:1009200005003d00c75ddd00f907b2008980750054
:1009300008007800000006000bf827008b00780004
:1009400000000500c70ade00f107b200f50fb20093
:1009500008003200e1cf4200020032000170a00026
:1009600024000500810f700001003200040805001a
:1009700044000500810f700002003a0014000500d9
:100980008502e9000000400081c04800fcff3b00f8
:100990000170a000240005000004be00e9ff07006c
:1009a0000003be000405be000200be00e5ff070014
:1009b000844f7500000006000200be006450e10094
:1009c000050036006420e100020036000968a3003b
:1009d00001003a000800be000160a0004f06780048
:1009e0004f05be004f04be0000000600f0ff2f00c0
:1009f000f1ff2700f9ff3700889fbe008a9fbe00e5
:100a00008c1f7800e4ff0700ebff330003866c00c7
:100a10006450e100240032006420e100270032002d
:100a20006150e100220032006120e100210032002b
:100a30008b854200eb07b1000134b800003ab800e2
:100a40000804420089844a00013ab8000030b80026
:100a50008880400009014a00040033000000400083
:100a600081804800020149008b05e900c909dd00c9
:100a7000830170000100320013002000c814de0062
:100a80004814dd004709de001200b200c808de008d
:100a90000884700085ff070001f0a1000cf0a7009a
:100aa00001f0a000cdff37006120e100cfff320050
:100ab0000801be000200be00f7ff37006150e100f0
:100ac000fcff3a00c9ff3700889fbe008a9fbe0026
:100ad0008c1f78000004be009aff07000478a30072
:100ae00026003a006120e1002500320009f8a30049
:100af00025003a006420e10021003200f507b10032
:100b00000508a30002003200000040008180480078
:100b10006044b800031020000200200000004000e4
:100b2000818048000805440089854c000a05410081
:100b30008b8549000a0550008b855800030033005f
:100b40000a00be0002047400838474008301d10093
:100b50000281d300830f7100f0ff3a008904d100b5
:100b60000884d3006001490082017800c1adde0035
:100b7000fb07b0004dff070098ff37000960a00099
:100b80000800be0095ff3700120220008240880056
:100b9000f0ff2f00f1ff270090ff3700889fbe0075
:100ba0008a9fbe00841f78007bff07004f007800fb
:100bb00011003300f0ff2f00838f6c0006003b0014
:100bc000040565000a00a7000800370009f0a60028
:100bd0001000200008003700820f5400838f5c0053
:100be000030039001000200001003e00000020003a
:100bf00009f0a7000000ea004f05be004f04be0048
:100c00000000e00000000600881f78000304780060
:100c10000300e00007003d0060001000e0801800c5
:100c200060011900e081190002003b0001f02d0075
:100c3000030037000400070008f0a70001f0a0003f
:100c40004f04780000000600889fbe008a9fbe0007
:100c500000827000040271000482710026003200dc
:100c60000004be000200be006011b8006b09200045
:100c7000950220000182cf000a0039000541b10031
:100c80000082cf00070039000541b1000982cf0082
:100c9000040039000541b1000882cf00010039008d
:100ca0000541b10005425200120032000a003b002b
:100cb00082817100610164008100d1000080d30055
:100cc0008984d3000884d3008b05e8000442e8003f
:100cd000f7ff3a00070037000804440089844c00fd
:100ce00000004800818048008b05e9000442e900cb
:100cf000f9ff3a00edfe07004f05be004f04be00ad
:040d000000000600e9
:020000040000fa
:100d04000000fa00e134800000fe2f000080600043
:100d14008001b300e0348800e1348000f00f2e003d
:100d2400808060000090210001007000e0348800a1
:100d34000135800000fe2f00008060003001b30008
:100d44000035880001358000f00f2e00808060009f
:100d5400004021000100700000358800010f800070
:100d64000070200001007000000f8800810f8000d7
:100d74000070200001007000800f8800e0e1a800ee
:100d8400f0e1a9000080fa00000006000400fa0067
:100d9400881f7800008fbe0018c0b3006011b8002f
:100da4001e00be009cfe07000000e00001003500ac
:100db4000044eb000804e000030032001e00be0003
:100dc40001f0a200008fbe001e00be004f04780098
:100dd4000080fa00000006003c00fa00881f78003a
:100de400201f9800311f9800421f9800531f98003d
:100df40010c0b300004f7800200f80003007980027
:100e0400a00f800040079800d0cc2c00c1cc230058
:100e140050079800610798003e009000cf80de00e4
:100e24009cfe0700020020004333240038fe070024
:100e3400325c2f0083042400eefe070032332300cb
:100e4400b3242400ebfe070002002000a347240083
:100e54002ffe070070079800010f98004e009000c5
:100e6400cf80de008bfe0700020020004333240005
:100e740027fe0700325c2f0083042400ddfe0700f8
:100e840032332300b3242400dafe070002002000da
:100e9400a34724001efe0700100f9800210f98009e
:100ea4001e099000ae0990007e0090008e0890000c
:100eb400bafd0700020020000300240014fe07000e
:100ec400300f9800410f98000000eb00500f98007d
:100ed400ce0090003e00900000805000cf80de00e5
:100ee4006cfe070042322f0013ef2300c1fe0700ff
:100ef400727a2e00e3c82300befe0700600f98003c
:100f0400710f98005e089000cf80de0061fe07003c
:100f14006e099000fe0990009ffd07000002be00cc
:100f240000408000114080000001be000400be00ab
:100f3400b0fe07000002be006040800071408000e7
:100f44000001be000400be0094fd0700020024005e
:100f5400c3512400a7fe070000179800111798003a
:100f6400d0cc2c00c1ec2300201798003117980036
:100f74000000200001f0230040179800511798004a
:100f840018c0b3006011b8002e189000be1890006d
:100f940023fe07000000e00001003c000044eb00d9
:100fa4000804e0000c0032004e139000de139000a1
:100fb4002e129000be1290002e199000be199000bf
:100fc4004e189000de189000860007001007980065
:100fd400210798000c0037004e139000de13900098
:100fe4002e129000be1290002e199000be1990008f
:100ff4004e189000de1890007a00070001f0a2005d
:1010040010079800210798003e099000ce0990002f
:101014002e189000be1890005ffd07005bff0700cc
:1010240018c0b3005e019000ee019000fcfd0700c3
:101034000000e00001003c000044eb000804e00074
:101044005c0032004e119000de1190002e109000d2
:10105400be109000aefd07000003be002e129000eb
:10106400be1290004e119000de1190002e189000d8
:10107400be189000b60107000200200003f0230010
:1010840046fd070018c0b3004e199000de19900009
:10109400e3fd07000000e00001003d000044eb0018
:1010a4000804e000430032001e099000ae099000dd
:1010b4001e009000ae00900037fd07000002be0045
:1010c40020408000314080000001be000400be00ca
:1010d40048fe07000002be004040800051408000ee
:1010e4000001be000400be002cfd07000200240025
:1010f400c35124003ffe0700601798007117980041
:101104007e0190008e0990001e009000ae009000b9
:1011140021fd07000002be00204080003140800015
:101124000001be000400be0032fe07000002be0043
:1011340040408000514080000001be000400be0019
:1011440016fd070002002400c351240029fe0700f5
:10115400001f9800111f98006e119000fe1190005e
:1011640000002600a15e24000bfd07000e11900074
:101174009e11900009fd0700abfd070000007800f8
:10118400000c880002002600a35e24000e189000c4
:101194009e18900001fd07000e1190009e11900012
:1011a400fdfc0700a0fd070000007800300c88005b
:1011b40008003700c0d42100000c8800c0d42100ee
:1011c400300c88000040eb00004f7800e421ef0071
:1011d400f421ef001e4078004f0478000080fa00ec
:1011e400000006001c00fa00889fbe008a9fbe0013
:1011f4006007980071079800020f9800130f980079
:10120400240f9800350f9800460f9800570f980048
:101214000e0890009e089000dcfe0700000f980066
:10122400110f98004e099000de0990002e089000de
:10123400be08900036fd070020079800310798008b
:101244002e039000be0390002e0a9000be0a900068
:101254004e099000de0990000e0890009e08900050
:101264003b01070040079800510798002e099000a1
:10127400be0990002e009000be009000ddfd070026
:1012840018c0b3000e0990009e09900064fd070089
:101294000000e00001003c000044eb000804e00012
:1012a4008100320002002000030024004e00900060
:1012b400de00900016fd070018c0b3006e01900018
:1012c400fe01900056fd07000000e00001003d0013
:1012d4000044eb000804e0000d003200020020008e
:1012e400030024004e089000de08900008fd07006b
:1012f4006e019000fe019000befd07006e0190009b
:10130400fe019000bbfd0700008fbe000b013700fb
:101314004e019000de0190004e089000de0890001f
:10132400b4fd07000200200003002400f8fc0700bd
:10133400200f9800310f98000200200003002400c1
:101344004e089000de089000f1fc07000004be0087
:1013540002002000030024004e009000de009000f4
:10136400ebfc07000001be000800be00a1fd070061
:101374000004be0002002000030024004e00900080
:10138400de009000e2fc07000001be000800be0081
:1013940098fd07000001be000e0890009e08900012
:1013a4007dfc07000004be000200200003002400ae
:1013b4004e009000de009000d5fc07000001be0046
:1013c4004e009000de00900073fc07000001be0098
:1013d4006e009000fe0090006ffc07002e09900044
:1013e400be09900083fd07000001be000800be0096
:1013f4006afc07000004be00020020000300240071
:101404004e089000de089000c1fc07000005be00f5
:1014140002002000030024004e009000de00900033
:10142400bbfc07000001be004e009000de009000ef
:1014340059fc07000001be006e009000fe00900001
:1014440055fc07000001be000a00be0069fd07004c
:101454000005be0002002000030024004e0090009e
:10146400de009000aafc07000001be004e009000c0
:10147400de00900048fc07000001be006e009000f2
:10148400fe00900044fc07000001be000a00be00fc
:1014940058fd07000001be000800be003efc070026
:1014a400008fbe00a500370018c0b3002e019000c5
:1014b400be0190006e009000fe009000d6fc070074
:1014c4000000e000010034000044eb000804e000e8
:1014d4000d00320002002000030024004e0890009a
:1014e400de0890008afc07006e019000fe01900067
:1014f40040fd07006e019000fe0190003dfd0700d5
:10150400008fbe008d00370018c0b3002e0190007c
:10151400be0190006e009000fe009000c0fc070029
:101524000000e00001003c000044eb000804e0007f
:101534002a0032002e019000be0190004e0090005f
:10154400de00900014fc070018c0b3006e01900088
:10155400fe019000b2fc07000000e00001003c0026
:101564000044eb000804e0001c0032002e0190004f
:10157400be0190002e009000be0090001dfd0700eb
:101584000004be0002002000030024004e08900066
:10159400de0890005efc07000001be000800be00eb
:1015a40014fd07000004be002e019000be0190004f
:1015b4006e009000fe009000f7fb07002e099000db
:1015c400be0990000bfd07000001be000800be002c
:1015d400f2fb0700008fbe00580037002e01900078
:1015e400be0190004e009000de009000eafb070070
:1015f40018c0b3006e019000fe01900086fc070045
:101604000000e000010034000044eb000804e000a6
:10161400470032002e019000be0190002e00900081
:10162400be009000f3fc07000004be00020020008e
:10163400030024004e089000de08900034fc0700ec
:101644000001be000800be00eafc07000001be0065
:101654000e0890009e089000cffb07000004be0017
:101664002e019000be0190004e009000de0090001c
:10167400c9fb07000001be006e009000fe00900050
:10168400c5fb07002e099000be099000d9fc070095
:101694000001be000800be00c0fb07000004be003d
:1016a40002002000030024004e089000de08900091
:1016b40017fc07000005be002e019000be0190003b
:1016c4004e009000de009000b3fb07000001be0056
:1016d4006e009000fe009000affb07000001be000a
:1016e4000a00be00c3fc07000005be002e019000e6
:1016f400be0190004e009000de009000a6fb0700a3
:101704000001be006e009000fe009000a2fb0700e6
:101714000001be000a00be00b6fc07000001be00c6
:101724000800be009cfb0700008fbe0003003700ca
:101734000e0990009e099000028fbe001e00be009c
:101744004f05be004f04be000080fa0000000600f2
:101754001400fa00889fbe00200798003107980003
:10176400420798005307980064079800750798008b
:10177400060f9800170f98002e009000be009000ee
:1017840082fd070020079800310798006e01900041
:10179400fe0190000e0890009e08900095fc070042
:1017a40018c0b3002e019000be0190001cfc07007d
:1017b4000000e00001003c000044eb000804e000ed
:1017c4000a0032004e019000de0190002e009000cd
:1017d400be009000cefb0700bafc07000001be006b
:1017e4006efb0700008fbe00180037000e08900043
:1017f4009e0890000001be0068fb07000004be00c4
:101804000e0990009e0990000e0890009e0890001a
:1018140078fc07004e019000de01900075fc070083
:101824000001be002e009000be0090005afb07008d
:101834006e019000fe019000b5fb07000001be00a0
:101844000800be0055fb0700008fbe001e00be004e
:101854004f04be000080fa00000006003a00fa00bf
:10186400889fbe008a9fbe00101f9800211f980009
:10187400321f9800431f98000000200001f8230045
:10188400008fbe0018c0b3006011b8001e1890008d
:10189400ae189000e0fb07000000e00001003500f6
:1018a4000044eb000804e0000300320000002000c4
:1018b40001f82b00008fbe0010c0b3004047980011
:1018c400200f800030079800a00f80004007980088
:1018d400d0cc2c00c1dc230050079800610798008d
:1018e40002002000433324001e189000ae1890001c
:1018f40087fb07000001be0028fb0700325c2f00b5
:10190400830424003bfc070070079800010f980033
:10191400ce0090003e00900000805000cf80de009a
:10192400dcfb070042322f0013ef230031fc0700d9
:10193400727a2e00e3c823002efc0700100f9800d3
:10194400210f980030002000300f98001000200074
:10195400400f98004e089000cf80de00cdfb0700ba
:101964000004be003e089000cf80de00c9fb0700e3
:101974000803be000002be007e0190008e099000a4
:101984003e189000ce18900016fe07001e01be00ff
:1019940018fc0700500f9800610f98001e09900072
:1019a400ae0990005e089000ee089000fafa070075
:1019b4000002be0000408000114080000001be0013
:1019c4000400be000bfc070002002400c3512400e5
:1019d40008fc0700700f9800011798003e00900063
:1019e400cf80de00abfb070002002000433324005d
:1019f40047fb0700325c2f0083042400fdfb070033
:101a040032332300b3242400fafb07000200200031
:101a1400a34724003efb07001017980021179800e5
:101a24004e009000cf80de009afb070002002000e9
:101a34004333240036fb0700325c2f008304240068
:101a4400ecfb070032332300b3242400e9fb070036
:101a540002002000a34724002dfb07003017980044
:101a6400411798003e119000ce1190001e10900076
:101a7400ae109000c9fa0700020020000300240001
:101a840023fb070050179800611798005e1190001f
:101a9400ee1190006000b800bffa07000002be001b
:101aa40020408000314080000001be000400be00e0
:101ab400d0fb070002002400c3512400cdfb070023
:101ac40070179800011f98001e099000ae0990003d
:101ad4007e0090008e089000affa0700abfc070070
:101ae40018c0b3005e019000ee0190004cfb0700ab
:101af4000000e00001003c000044eb000804e000aa
:101b040038003200be0890004e08900000017800b2
:101b1400110009008200d800cf80de005dfb0700c1
:101b24000005be003e089000cf80de0059fb070090
:101b34000004be004e089000cf80de0055fb070075
:101b44000a03be000802be000001be007e00900031
:101b54008e089000fefe07000200200003f0230020
:101b64008efa070018c0b3003e199000ce199000f9
:101b74002bfb07000000e00001003d000044eb00e7
:101b84000804e000170032007e0990008e119000d6
:101b940000002600a15e24007ffa07007e11900059
:101ba4008e1990007cfa07001ffb070000007800e4
:101bb400000c88007e0990008e1190000000260021
:101bc400a15e240074fa07007e1190008e19900023
:101bd40072fa070014fb070000007800300c88003c
:101be40008003700c0d42100000c8800c0d42100b4
:101bf400300c88000040eb0040479800e421ef00df
:101c0400f421ef004e4090004f05be004f04be008b
:101c14000080fa00000006001400fa00881f780013
:101c2400a0002000090107000080eb006019880073
:101c3400a80107006401070031fc07009a000700af
:101c4400af01070083010700e421ef00f421ef0056
:101c54006000b800008fbe006000b8002007980044
:101c6400310798006000b800000f9800110f980029
:101c7400e421ef00f421ef000040eb00004f980056
:101c84006000b80060079800710798000d003700e5
:101c94002104800000102000008060000000e000ab
:101ca400080032000200200003f823006e009000b8
:101cb400fe00900039fa0700600798007107980049
:101cc4008500a90018c0b30002002000832c240062
:101cd4006e009000fe009000cffa07000000e000c4
:101ce400010035000044eb000804e000e8ff3a007e
:101cf40005003700301180008000eb00e8fa07008f
:101d0400600798007107980010118000610060005e
:101d14000000e000f7ff3a006000b8006007980098
:101d24007107980005003700000000000300370029
:101d34000000000001003700000000000e48900081
:101d44000004e00010003a00550107005007980015
:101d540053010700cf80de00cefa07006007980029
:101d64007107980010c0b300004f98006000b800dd
:101d7400008fbe006000b80020079800310798006b
:101d8400e421ef00f421ef00210480000010200082
:101d9400008060000000e000e3ff32000200200049
:101da40003f823001e00be00fcf90700008fbe00ec
:101db40002002000832c24001e00be0096fa0700b7
:101dc4000000e00009003a006000b800008fbe0087
:101dd4000200200003f823002e009000be009000b3
:101de400eef9070020079800310798000200200050
:101df400832c24001e00be0045fa07002e0190002b
:101e0400be019000e5f90700000f9800110f98003b
:101e14008500a9000e489000e14f5000c4ff3a002d
:101e24005e0090000000e0000a003a00020020007a
:101e3400832c24006e009000fe00900034fa07000a
:101e44000e0990009e099000e3fb0700004f9800e4
:101e5400baff37005e009000e10f500007003a001f
:101e64000e0990009e0990006e009000fe00900004
:101e74007afe0700004f9800b0ff37005e00900024
:101e8400e20f5000acff3a006e009000fe0090009c
:101e940001f0a2000e0990009e0990006ffe070059
:101ea400004f9800a5ff37000000fa00c842a900bf
:101eb400ca42a8002135800000fe2f000080600087
:101ec400f000b300203588007136800000fe2f003a
:101ed400008060003000b300703688002135800037
:101ee400f00f2e00808060000030200001007000a0
:101ef400203588008136800000fe2f0000806000bd
:101f04000020a000803688002062a9005001200033
:101f1400401188000111800090ff2f0000806000b4
:101f24000011880021e2a8002342a8000080fa00e2
:101f3400000006000200fa00000f78003011800053
:101f440000000000111180000020200000806000cb
:101f54000000e000fbff3a001e007800201188001a
:101f64000080fa00000006000800fa00881f7800cc
:101f740020079800310798006000b800008fbe0069
:101f84000a00370021048000001020000080600057
:101f94000000e00005003200a2702d0033c22300cf
:101fa4001e00be007df90700008fbe0018c0b300fc
:101fb4002e019000be0190001e00be0016fa07001c
:101fc4000000e000010035000044eb000804e000dc
:101fd400ecff3a000100370030118000101180003e
:101fe400610060000000e000fbff3a004f0478004d
:101ff4000080fa00000006000400fa0010118000be
:1020040000407800614060000080fb0010079800e9
:102014000700370030118000000f78001011800095
:1020240000407800614060000080fb0010079800c9
:1020340010118000610060000000e000f5ff320034
:102044001e0078000080fa00000006000200fa007a
:10205400000f78001e007800e80f50000b003a00d3
:1020640060022000303a8800213a800000fe2f00f0
:1020740000806000203a8800213a8000f0f32f00ad
:1020840000806000203a88000d0037001e007800b0
:10209400ea0f50000a003a00e0012000303a8800bc
:1020a400213a800000fe2f0000806000203a880062
:1020b400213a8000f0f32f0000806000203a88006d
:1020c4003200200080072000a10920003374200082
:1020d4008049780081497800824978001200200004
:1020e40060042000710520002374200080497800da
:1020f400814978008249780000000000113a80008c
:10210400000027008080600000002300808f5000c2
:10211400faff3a000080fa00000006000000fa000e
:102124002143a80050c0b30024e3b7002043a80013
:102134003003a8002c03a90001198000f0f12f003e
:10214400008060000060a0000019880021e3a8005e
:102154000080fa00000006000200fa00000f780078
:102164001e0078007008880013e1a8000080fa00bf
:10217400000006000000fa002023a9000080fa00f5
:10218400000006000000fa000019800000407800fa
:10219400614060000080fb000080fa00000006003f
:1021a4000000fa0000198000610060000000e000f7
:1021b40002003200001880000100370000002800ef
:1021c4000080fa00000006000000fa00913680004a
:1021d40000fe2f00008060002001b30090368800cc
:1021e40061368000f00f2e008080600000302100f6
:1021f40001007000603688002d03a8008461a900e6
:102204008a61a900c0d42100100c8800c0d4210028
:10221400000c8800c0d42100400c8800c0d42100e8
:10222400300c8800510c800080ff2f00008060007b
:102234006000b300500c8800210c800080ff2f0048
:10224400008060006000b300200c88000080fa0069
:10225400000006000000fa002135800000fe2f0077
:10226400008060000030a0002035880041368000e6
:10227400f00f2e008080600000302000010070000c
:102284004036880050012000401188002062a900d7
:1022940021e2a8002342a8000080fa000000060002
:1022a4000200fa000000eb00000f780000000000bc
:1022b40010118000610060000000e000fcff3200ab
:1022c40030118000000f78001e0078000080fa00b2
:1022d400000006000000fa0080a9230060088800be
:1022e40081088000f0fc2f00008060000040a00006
:1022f4008008880011e1a8000080fa0000000600b0
:102304000000fa0000352c00700888009108800055
:10231400f0fc2f00008060000040a00090088800be
:0c23240013e1a8000080fa000000060091
:020000040000fa
:102330000008000010000000020000007ac27200d5
:102340003f0ad70007419a0099193e00000080001b
:102350003e00000010080000020000000000000025
:042360000000000079
:020000040000fa
:0200000401f009
:04000c008000000070
:020000040000fa
:0200000401f009
:040010006500000087
:020000040000fa
:0200000401f009
:040014005f00000089
:020000040000fa
:0200000401f009
:04001c00dfff000002
:00000001FF
